{"t":0,"session":"railgun-e2e-decryption-browser__Note Decryption - Browser vs Node.js Paths > should decrypt notes correctly on both Node.js and browser paths with real logs","upstream":"https://sepolia.colibri-proof.tech/execution","latencyMs":266,"httpStatus":200,"responseBytes":39,"parse":{"requestOk":true,"responseOk":true},"request":{"id":3,"method":"eth_getTransactionCount","params":["0x7d3f55c5e2fdad8aec662444144213669a8ff916","pending"]},"response":{"ok":true,"hasError":false}}
{"t":270,"session":"railgun-e2e-decryption-browser__Note Decryption - Browser vs Node.js Paths > should decrypt notes correctly on both Node.js and browser paths with real logs","upstream":"https://sepolia.colibri-proof.tech/execution","latencyMs":350,"httpStatus":200,"responseBytes":43,"parse":{"requestOk":true,"responseOk":true},"request":{"id":4,"method":"eth_estimateGas","params":[{"nonce":"0xb","value":"0x16345785d8a0000","from":"0x7d3f55c5e2fdad8aec662444144213669a8ff916","to":"0x66af65bfff9e384796a56f3fa3709b9d5d9d7083","data":"0xe4899c130000000000000000000000000000000000000000000000000000000000000001000000000000000000000000000000000000000000000000000000000000004000000000000000000000000000000000000000000000000000000000000000020000000000000000000000000000000000000000000000000000000000000040000000000000000000000000000000000000000000000000000000000000010000000000000000000000000066af65bfff9e384796a56f3fa3709b9d5d9d7083000000000000000000000000000000000000000000000000000000000000006000000000000000000000000000000000000000000000000000000000000000000000000000000000000000000000000000000000000000000000000000000024e9a059a3000000000000000000000000000000000000000000000000016345785d8a00000000000000000000000000000000000000000000000000000000000000000000000000000000000066af65bfff9e384796a56f3fa3709b9d5d9d7083000000000000000000000000000000000000000000000000000000000000006000000000000000000000000000000000000000000000000000000000000000000000000000000000000000000000000000000000000000000000000000000164044a40c3000000000000000000000000000000000000000000000000000000000000002000000000000000000000000000000000000000000000000000000000000000011009075a5f75493275026135bbb4460e1aa9035a10b2bfc829f0a2937cbb959f000000000000000000000000000000000000000000000000000000000000000000000000000000000000000097a36608da67af0a79e50cb6343f86f340b3b49e0000000000000000000000000000000000000000000000000000000000000000000000000000000000000000000000000000000000000000016345785d8a0000141562e683d1cb7af89276012afe5838453e66eaca7034b4122c46d9d8f30f8a29d9e3715c71fd72340e61a340faa8c152f664687a5d355da01e6fefec83b21ca3b1769b8882cb0e7bb9bcf61220f4fac0c00bce790b696857e6c94c2f51f708bf68a19da83569edc8ef7219c9efa83cc8206e3cb6a1c51ab0c3349e98ced83c00000000000000000000000000000000000000000000000000000000"}]},"response":{"ok":true,"hasError":false}}
{"t":625,"session":"railgun-e2e-decryption-browser__Note Decryption - Browser vs Node.js Paths > should decrypt notes correctly on both Node.js and browser paths with real logs","upstream":"https://sepolia.colibri-proof.tech/execution","latencyMs":342,"httpStatus":200,"responseBytes":46,"parse":{"requestOk":true,"responseOk":true},"request":{"id":6,"method":"eth_gasPrice","params":[]},"response":{"ok":true,"hasError":false}}
{"t":625,"session":"railgun-e2e-decryption-browser__Note Decryption - Browser vs Node.js Paths > should decrypt notes correctly on both Node.js and browser paths with real logs","upstream":"https://sepolia.colibri-proof.tech/execution","latencyMs":343,"httpStatus":200,"responseBytes":10776,"parse":{"requestOk":true,"responseOk":true},"request":{"id":5,"method":"eth_getBlockByNumber","params":["latest",false]},"response":{"ok":true,"hasError":false}}
{"t":626,"session":"railgun-e2e-decryption-browser__Note Decryption - Browser vs Node.js Paths > should decrypt notes correctly on both Node.js and browser paths with real logs","upstream":"https://sepolia.colibri-proof.tech/execution","latencyMs":1677,"httpStatus":200,"responseBytes":44,"parse":{"requestOk":true,"responseOk":true},"request":{"id":7,"method":"eth_maxPriorityFeePerGas","params":[]},"response":{"ok":true,"hasError":false}}
{"t":2310,"session":"railgun-e2e-decryption-browser__Note Decryption - Browser vs Node.js Paths > should decrypt notes correctly on both Node.js and browser paths with real logs","upstream":"https://sepolia.colibri-proof.tech/execution","latencyMs":1228,"httpStatus":200,"responseBytes":44,"parse":{"requestOk":true,"responseOk":true},"request":{"id":8,"method":"eth_blockNumber","params":[]},"response":{"ok":true,"hasError":false}}
{"t":2311,"session":"railgun-e2e-decryption-browser__Note Decryption - Browser vs Node.js Paths > should decrypt notes correctly on both Node.js and browser paths with real logs","upstream":"https://sepolia.colibri-proof.tech/execution","latencyMs":1301,"httpStatus":200,"responseBytes":102,"parse":{"requestOk":true,"responseOk":true},"request":{"id":9,"method":"eth_sendRawTransaction","params":["0x02f903db83aa36a70b8315f5d584811576e3830d435e9466af65bfff9e384796a56f3fa3709b9d5d9d708388016345785d8a0000b90364e4899c130000000000000000000000000000000000000000000000000000000000000001000000000000000000000000000000000000000000000000000000000000004000000000000000000000000000000000000000000000000000000000000000020000000000000000000000000000000000000000000000000000000000000040000000000000000000000000000000000000000000000000000000000000010000000000000000000000000066af65bfff9e384796a56f3fa3709b9d5d9d7083000000000000000000000000000000000000000000000000000000000000006000000000000000000000000000000000000000000000000000000000000000000000000000000000000000000000000000000000000000000000000000000024e9a059a3000000000000000000000000000000000000000000000000016345785d8a00000000000000000000000000000000000000000000000000000000000000000000000000000000000066af65bfff9e384796a56f3fa3709b9d5d9d7083000000000000000000000000000000000000000000000000000000000000006000000000000000000000000000000000000000000000000000000000000000000000000000000000000000000000000000000000000000000000000000000164044a40c3000000000000000000000000000000000000000000000000000000000000002000000000000000000000000000000000000000000000000000000000000000011009075a5f75493275026135bbb4460e1aa9035a10b2bfc829f0a2937cbb959f000000000000000000000000000000000000000000000000000000000000000000000000000000000000000097a36608da67af0a79e50cb6343f86f340b3b49e0000000000000000000000000000000000000000000000000000000000000000000000000000000000000000000000000000000000000000016345785d8a0000141562e683d1cb7af89276012afe5838453e66eaca7034b4122c46d9d8f30f8a29d9e3715c71fd72340e61a340faa8c152f664687a5d355da01e6fefec83b21ca3b1769b8882cb0e7bb9bcf61220f4fac0c00bce790b696857e6c94c2f51f708bf68a19da83569edc8ef7219c9efa83cc8206e3cb6a1c51ab0c3349e98ced83c00000000000000000000000000000000000000000000000000000000c080a0bbdbfa56c27f59275b6b466dec76d4253aacd5241a9f506a756264a774d5793ba0276db12825eacea6fc6942af4e0ca27463fafc7156416dd1cd62310853904670"]},"response":{"ok":true,"hasError":false}}
{"t":3621,"session":"railgun-e2e-decryption-browser__Note Decryption - Browser vs Node.js Paths > should decrypt notes correctly on both Node.js and browser paths with real logs","upstream":"https://sepolia.colibri-proof.tech/execution","latencyMs":1143,"httpStatus":200,"responseBytes":45,"parse":{"requestOk":true,"responseOk":true},"request":{"id":10,"method":"eth_blockNumber","params":[]},"response":{"ok":true,"hasError":false}}
{"t":4767,"session":"railgun-e2e-decryption-browser__Note Decryption - Browser vs Node.js Paths > should decrypt notes correctly on both Node.js and browser paths with real logs","upstream":"https://sepolia.colibri-proof.tech/execution","latencyMs":1760,"httpStatus":200,"responseBytes":45,"parse":{"requestOk":true,"responseOk":true},"request":{"id":11,"method":"eth_blockNumber","params":[]},"response":{"ok":true,"hasError":false}}
{"t":8030,"session":"railgun-e2e-decryption-browser__Note Decryption - Browser vs Node.js Paths > should decrypt notes correctly on both Node.js and browser paths with real logs","upstream":"https://sepolia.colibri-proof.tech/execution","latencyMs":1502,"httpStatus":200,"responseBytes":45,"parse":{"requestOk":true,"responseOk":true},"request":{"id":12,"method":"eth_blockNumber","params":[]},"response":{"ok":true,"hasError":false}}
{"t":11034,"session":"railgun-e2e-decryption-browser__Note Decryption - Browser vs Node.js Paths > should decrypt notes correctly on both Node.js and browser paths with real logs","upstream":"https://sepolia.colibri-proof.tech/execution","latencyMs":835,"httpStatus":200,"responseBytes":45,"parse":{"requestOk":true,"responseOk":true},"request":{"id":13,"method":"eth_blockNumber","params":[]},"response":{"ok":true,"hasError":false}}
{"t":13373,"session":"railgun-e2e-decryption-browser__Note Decryption - Browser vs Node.js Paths > should decrypt notes correctly on both Node.js and browser paths with real logs","upstream":"https://sepolia.colibri-proof.tech/execution","latencyMs":1169,"httpStatus":200,"responseBytes":45,"parse":{"requestOk":true,"responseOk":true},"request":{"id":14,"method":"eth_blockNumber","params":[]},"response":{"ok":true,"hasError":false}}
{"t":16046,"session":"railgun-e2e-decryption-browser__Note Decryption - Browser vs Node.js Paths > should decrypt notes correctly on both Node.js and browser paths with real logs","upstream":"https://sepolia.colibri-proof.tech/execution","latencyMs":452,"httpStatus":200,"responseBytes":45,"parse":{"requestOk":true,"responseOk":true},"request":{"id":15,"method":"eth_blockNumber","params":[]},"response":{"ok":true,"hasError":false}}
{"t":16501,"session":"railgun-e2e-decryption-browser__Note Decryption - Browser vs Node.js Paths > should decrypt notes correctly on both Node.js and browser paths with real logs","upstream":"https://sepolia.colibri-proof.tech/execution","latencyMs":76,"httpStatus":200,"responseBytes":45,"parse":{"requestOk":true,"responseOk":true},"request":{"id":16,"method":"eth_blockNumber","params":[]},"response":{"ok":true,"hasError":false}}
{"t":16580,"session":"railgun-e2e-decryption-browser__Note Decryption - Browser vs Node.js Paths > should decrypt notes correctly on both Node.js and browser paths with real logs","upstream":"https://sepolia.colibri-proof.tech/execution","latencyMs":51,"httpStatus":200,"responseBytes":5715,"parse":{"requestOk":true,"responseOk":true},"request":{"id":17,"method":"eth_getTransactionReceipt","params":["0x3e36242d91c600ebd07101c5cb621a8130634fdd64bbc4b2324703d70a495b2f"]},"response":{"ok":true,"hasError":false}}
{"t":18136,"session":"railgun-e2e-decryption-browser__Note Decryption - Browser vs Node.js Paths > should decrypt notes correctly on both Node.js and browser paths with real logs","upstream":"https://sepolia.colibri-proof.tech/execution","latencyMs":488,"httpStatus":200,"responseBytes":45,"parse":{"requestOk":true,"responseOk":true},"request":{"id":18,"method":"eth_blockNumber","params":[]},"response":{"ok":true,"hasError":false}}
{"t":20128,"session":"railgun-e2e-decryption-browser__Note Decryption - Browser vs Node.js Paths > should decrypt notes correctly on both Node.js and browser paths with real logs","upstream":"https://sepolia.colibri-proof.tech/execution","latencyMs":92,"httpStatus":200,"responseBytes":45,"parse":{"requestOk":true,"responseOk":true},"request":{"id":19,"method":"eth_blockNumber","params":[]},"response":{"ok":true,"hasError":false}}
{"t":21724,"session":"railgun-e2e-decryption-browser__Note Decryption - Browser vs Node.js Paths > should decrypt notes correctly on both Node.js and browser paths with real logs","upstream":"https://sepolia.colibri-proof.tech/execution","latencyMs":74,"httpStatus":200,"responseBytes":45,"parse":{"requestOk":true,"responseOk":true},"request":{"id":20,"method":"eth_blockNumber","params":[]},"response":{"ok":true,"hasError":false}}
{"t":23301,"session":"railgun-e2e-decryption-browser__Note Decryption - Browser vs Node.js Paths > should decrypt notes correctly on both Node.js and browser paths with real logs","upstream":"https://sepolia.colibri-proof.tech/execution","latencyMs":60,"httpStatus":200,"responseBytes":45,"parse":{"requestOk":true,"responseOk":true},"request":{"id":21,"method":"eth_blockNumber","params":[]},"response":{"ok":true,"hasError":false}}
{"t":24864,"session":"railgun-e2e-decryption-browser__Note Decryption - Browser vs Node.js Paths > should decrypt notes correctly on both Node.js and browser paths with real logs","upstream":"https://sepolia.colibri-proof.tech/execution","latencyMs":24,"httpStatus":200,"responseBytes":45,"parse":{"requestOk":true,"responseOk":true},"request":{"id":22,"method":"eth_blockNumber","params":[]},"response":{"ok":true,"hasError":false}}
{"t":26392,"session":"railgun-e2e-decryption-browser__Note Decryption - Browser vs Node.js Paths > should decrypt notes correctly on both Node.js and browser paths with real logs","upstream":"https://sepolia.colibri-proof.tech/execution","latencyMs":23,"httpStatus":200,"responseBytes":45,"parse":{"requestOk":true,"responseOk":true},"request":{"id":23,"method":"eth_blockNumber","params":[]},"response":{"ok":true,"hasError":false}}
{"t":27917,"session":"railgun-e2e-decryption-browser__Note Decryption - Browser vs Node.js Paths > should decrypt notes correctly on both Node.js and browser paths with real logs","upstream":"https://sepolia.colibri-proof.tech/execution","latencyMs":21,"httpStatus":200,"responseBytes":45,"parse":{"requestOk":true,"responseOk":true},"request":{"id":24,"method":"eth_blockNumber","params":[]},"response":{"ok":true,"hasError":false}}
{"t":29442,"session":"railgun-e2e-decryption-browser__Note Decryption - Browser vs Node.js Paths > should decrypt notes correctly on both Node.js and browser paths with real logs","upstream":"https://sepolia.colibri-proof.tech/execution","latencyMs":54,"httpStatus":200,"responseBytes":45,"parse":{"requestOk":true,"responseOk":true},"request":{"id":25,"method":"eth_blockNumber","params":[]},"response":{"ok":true,"hasError":false}}
{"t":31002,"session":"railgun-e2e-decryption-browser__Note Decryption - Browser vs Node.js Paths > should decrypt notes correctly on both Node.js and browser paths with real logs","upstream":"https://sepolia.colibri-proof.tech/execution","latencyMs":150,"httpStatus":200,"responseBytes":45,"parse":{"requestOk":true,"responseOk":true},"request":{"id":26,"method":"eth_blockNumber","params":[]},"response":{"ok":true,"hasError":false}}
{"t":32654,"session":"railgun-e2e-decryption-browser__Note Decryption - Browser vs Node.js Paths > should decrypt notes correctly on both Node.js and browser paths with real logs","upstream":"https://sepolia.colibri-proof.tech/execution","latencyMs":37,"httpStatus":200,"responseBytes":45,"parse":{"requestOk":true,"responseOk":true},"request":{"id":27,"method":"eth_blockNumber","params":[]},"response":{"ok":true,"hasError":false}}
{"t":34195,"session":"railgun-e2e-decryption-browser__Note Decryption - Browser vs Node.js Paths > should decrypt notes correctly on both Node.js and browser paths with real logs","upstream":"https://sepolia.colibri-proof.tech/execution","latencyMs":70,"httpStatus":200,"responseBytes":45,"parse":{"requestOk":true,"responseOk":true},"request":{"id":28,"method":"eth_blockNumber","params":[]},"response":{"ok":true,"hasError":false}}
{"t":35769,"session":"railgun-e2e-decryption-browser__Note Decryption - Browser vs Node.js Paths > should decrypt notes correctly on both Node.js and browser paths with real logs","upstream":"https://sepolia.colibri-proof.tech/execution","latencyMs":166,"httpStatus":200,"responseBytes":45,"parse":{"requestOk":true,"responseOk":true},"request":{"id":29,"method":"eth_blockNumber","params":[]},"response":{"ok":true,"hasError":false}}
{"t":37438,"session":"railgun-e2e-decryption-browser__Note Decryption - Browser vs Node.js Paths > should decrypt notes correctly on both Node.js and browser paths with real logs","upstream":"https://sepolia.colibri-proof.tech/execution","latencyMs":199,"httpStatus":200,"responseBytes":45,"parse":{"requestOk":true,"responseOk":true},"request":{"id":30,"method":"eth_blockNumber","params":[]},"response":{"ok":true,"hasError":false}}
{"t":39141,"session":"railgun-e2e-decryption-browser__Note Decryption - Browser vs Node.js Paths > should decrypt notes correctly on both Node.js and browser paths with real logs","upstream":"https://sepolia.colibri-proof.tech/execution","latencyMs":198,"httpStatus":200,"responseBytes":45,"parse":{"requestOk":true,"responseOk":true},"request":{"id":31,"method":"eth_blockNumber","params":[]},"response":{"ok":true,"hasError":false}}
{"t":40843,"session":"railgun-e2e-decryption-browser__Note Decryption - Browser vs Node.js Paths > should decrypt notes correctly on both Node.js and browser paths with real logs","upstream":"https://sepolia.colibri-proof.tech/execution","latencyMs":85,"httpStatus":200,"responseBytes":45,"parse":{"requestOk":true,"responseOk":true},"request":{"id":32,"method":"eth_blockNumber","params":[]},"response":{"ok":true,"hasError":false}}
{"t":40930,"session":"railgun-e2e-decryption-browser__Note Decryption - Browser vs Node.js Paths > should decrypt notes correctly on both Node.js and browser paths with real logs","upstream":"https://sepolia.colibri-proof.tech/execution","latencyMs":204,"httpStatus":200,"responseBytes":1620,"parse":{"requestOk":true,"responseOk":true},"request":{"id":33,"method":"eth_getLogs","params":[{"address":"0x942d5026b421cf2705363a525897576cfada5964","fromBlock":"0x9c0b9c","toBlock":"0x9c0ba1"}]},"response":{"ok":true,"hasError":false}}
{"t":110984,"session":"railgun-e2e-decryption-browser__Note Decryption - Browser vs Node.js Paths > should decrypt notes correctly on both Node.js and browser paths with real logs","upstream":"https://sepolia.colibri-proof.tech/execution","latencyMs":230,"httpStatus":200,"responseBytes":44,"parse":{"requestOk":true,"responseOk":true},"request":{"id":2,"method":"eth_blockNumber","params":[]},"response":{"ok":true,"hasError":false}}
{"t":110981,"session":"railgun-e2e-decryption-browser__Note Decryption - Browser vs Node.js Paths > should decrypt notes correctly on both Node.js and browser paths with real logs","upstream":"https://sepolia.colibri-proof.tech/execution","latencyMs":239,"httpStatus":200,"responseBytes":44,"parse":{"requestOk":true,"responseOk":true},"request":{"id":1,"method":"eth_chainId","params":[]},"response":{"ok":true,"hasError":false}}
